:100000000C9462000C948A000C948A000C948A0070
:100010000C948A000C948A000C948A000C948A0038
:100020000C948A000C948A000C948A000C948A0028
:100030000C948A000C948A000C948A000C948A0018
:100040000C9470050C948A000C943E050C941805D1
:100050000C948A000C948A000C948A000C948A00F8
:100060000C948A000C948A000000000024002700F1
:100070002A0000000000250028002B0000000008D6
:10008000000201000003040700000000000000005F
:1000900000000000230026002900040404040404D6
:1000A0000404020202020202030303030303010227
:1000B00004081020408001020408102001020408F6
:1000C0001020FF0511241FBECFEFD8E0DEBFCDBF4B
:1000D00011E0A0E0B1E0E4E0F5E102C005900D928E
:1000E000A63BB107D9F722E0A6EBB1E001C01D9213
:1000F000A837B207E1F710E0C2E6D0E004C02197CC
:10010000FE010E947A0AC136D107C9F70E9449064A
:100110000C94800A0C940000AF92BF92CF92DF92B1
:10012000EF92FF920F931F93CF93DF936C017B01AC
:100130008B01040F151FEB015E01AE18BF08C0173D
:10014000D10759F06991D601ED91FC910190F081B0
:10015000E02DC6010995892B79F7C501DF91CF9173
:100160001F910F91FF90EF90DF90CF90BF90AF90D5
:100170000895FC01538D448D252F30E0842F90E0AD
:10018000821B930B541710F0CF9608950197089592
:10019000FC01918D828D981761F0A28DAE0FBF2F5B
:1001A000B11D5D968C91928D9F5F9F73928F90E0B1
:1001B00008958FEF9FEF0895FC01918D828D981720
:1001C00031F0828DE80FF11D858D90E008958FEF5D
:1001D0009FEF0895FC01918D228D892F90E0805C26
:1001E0009F4F821B91098F739927089583EC91E0AB
:1001F0000E94EA0021E0892B09F420E0822F089573
:1002000080E090E0892B29F00E94F60081110C9487
:1002100000000895FC01A48DA80FB92FB11DA35AA9
:10022000BF4F2C91848D90E001968F739927848F16
:10023000A689B7892C93A089B1898C918370806439
:100240008C93938D848D981306C00288F389E02DDA
:1002500080818F7D80830895EF92FF920F931F938B
:10026000CF93DF93EC0181E0888F9B8D8C8D981369
:100270001AC0E889F989808185FF15C09FB7F89475
:10028000EE89FF896083E889F989808183708064C1
:1002900080839FBF81E090E0DF91CF911F910F910C
:1002A000FF90EF900895F62E0B8D10E00F5F1F4F1B
:1002B0000F731127E02E8C8D8E110CC00FB607FC2A
:1002C000FACFE889F989808185FFF5CFCE010E94B8
:1002D0000A01F1CFEB8DEC0FFD2FF11DE35AFF4F1B
:1002E000F0829FB7F8940B8FEA89FB898081806246
:1002F000CFCFCF93DF93EC01888D8823B9F0AA8903
:10030000BB89E889F9898C9185FD03C0808186FDD0
:100310000DC00FB607FCF7CF8C9185FFF2CF80811F
:1003200085FFEDCFCE010E940A01E9CFDF91CF9189
:10033000089590E0FC01E458FF4F2491FC01E25540
:10034000FF4F3491FC01E656FF4FE491EE23C9F0D4
:10035000222339F0233001F1A8F4213019F12230A1
:1003600029F1F0E0EE0FFF1FEE58FF4FA591B49179
:100370008FB7F894EC91611126C030953E233C93E1
:100380008FBF08952730A9F02830C9F0243049F7ED
:10039000809180008F7D03C0809180008F77809353
:1003A0008000DFCF84B58F7784BDDBCF84B58F7DB0
:1003B000FBCF8091B0008F778093B000D2CF809137
:1003C000B0008F7DF9CF3E2BDACFCF93DF9390E053
:1003D000FC01E255FF4F249186569F4FFC0184910A
:1003E0008823D1F090E0880F991FFC01E859FF4F56
:1003F000A591B491FC01EE58FF4FC591D4916111C4
:100400000EC09FB7F8948C91E22FE0958E238C93C9
:100410002881E223E8839FBFDF91CF9108958FB7B2
:10042000F894EC91E22BEC938FBFF6CF3FB7F894A2
:100430008091BB019091BC01A091BD01B091BE0122
:1004400026B5A89B05C02F3F19F00196A11DB11D2F
:100450003FBFBA2FA92F982F8827BC01CD01620F6B
:10046000711D811D911D42E0660F771F881F991F26
:100470004A95D1F708958F929F92AF92BF92CF92F3
:10048000DF92EF92FF924B015C010E9416026B011A
:100490007C010E9416026C197D098E099F09683E35
:1004A000734081059105A8F321E0821A9108A10803
:1004B000B10888EEC80E83E0D81EE11CF11C81143F
:1004C0009104A104B10429F7FF90EF90DF90CF9041
:1004D000BF90AF909F908F900895089590E080E036
:1004E0000895CF93DF93EC0160E08E810E94990123
:1004F00061E08E810E94990160E08E810E949901E5
:100500008BE891E00197F1F7DF91CF910895CF92B9
:10051000DF92EF92FF920F931F93CF93DF936C01C3
:100520007C0187E0E80EF11CD0E0C0E0062F10E06F
:10053000B8010C2E02C0759567950A94E2F76170B8
:10054000F70181917F010E9499012196C430D10564
:1005500079F7C601DF91CF911F910F91FF90EF9036
:10056000DF90CF900C947102CF92DF92EF92FF92C6
:100570000F931F93CF93DF93EC01F62E642F8C81A2
:100580000E9499018D818F3F19F060E00E949901CE
:100590000F2D10E08F8584FF25C06E0187E0C80E07
:1005A000D11CF12CE12CB8010E2C02C07595679579
:1005B0000A94E2F76170F60181916F010E9499013E
:1005C000FFEFEF1AFF0A88E0E816F10461F7CE01A9
:1005D000DF91CF911F910F91FF90EF90DF90CF901F
:1005E0000C947102B80184E0759567958A95E1F7DE
:1005F000CE010E9487026F2DCE01DF91CF911F9116
:100600000F91FF90EF90DF90CF900C94870240E025
:10061000682F80E692E00C94B40281E00E94070308
:100620008BE39FE10197F1F70895CF93DF93823039
:1006300029F490916F02986090936F0280937302F7
:100640001092740280E48093750280E180937602B8
:1006500080E58093770261E0809164020E94E50169
:10066000809165028F3F19F061E00E94E50161E031
:10067000809166020E94E501C0E6D2E09E0120560C
:10068000324080916F0284FD0BC084E090E021969F
:100690002817390744F461E08E810E94E501EECF0E
:1006A00088E090E0F4CF8BE39DE00197F1F760E004
:1006B000809164020E94990160E0809166020E942C
:1006C0009901809165028F3F19F060E00E949901C5
:1006D00080916F0284FD34C063E080E692E00E9466
:1006E0008702CBE4D6E4CE010197F1F763E080E620
:1006F00092E00E9487022197F1F763E080E692E0A2
:100700000E94870283E592E00197F1F762E080E6BC
:1007100092E00E94870280916F0280620E9407032C
:1007200084E0809370028CE00E9407030E940D0316
:1007300082E08093710286E0DF91CF910C940703F1
:1007400080620E9407038BE496E40197F1F78091A1
:100750006F0280620E94070383E592E00197F1F740
:1007600080916F0280620E940703D5CF909173023F
:10077000891710F08FEF890FE82FF0E0E05AFD4F56
:10078000848980680C94070341E00E94B40281E0F0
:1007900090E00895FB0101900020E9F73197AF0147
:1007A000461B570BDC01ED91FC910280F381E02D9B
:1007B00009948F929F92AF92BF92EF92FF920F9304
:1007C0001F93CF93DF93CDB7DEB7A1970FB6F89401
:1007D000DEBF0FBECDBF7C01FA01CB0119A22230D2
:1007E00008F42AE08E010F5D1F4F822E912CB12C50
:1007F000A12CBF01A50194010E94580AF901CA0168
:100800006A300CF5605DD8016E938D01232B242B8B
:10081000252B79F790E080E0109721F0BD01C7010A
:100820000E94CA03A1960FB6F894DEBF0FBECDBFDB
:10083000DF91CF911F910F91FF90EF90BF90AF90FC
:100840009F908F900895695CDECFBC0180E692E0B6
:100850000C94CA032F923F924F925F926F927F92B5
:100860008F929F92AF92BF92CF92DF92EF92FF92C0
:100870001F93CF93DF93EC016A017B01722EAB01D2
:100880009601CB01B6010E94530A6EE171E081111D
:1008900026C046015701E894B7F82FEF3FEF4FE726
:1008A0005FE7C501B4010E94530A81110CC02FEF0C
:1008B0003FEF4FE75FE7C501B4010E94820862E2A3
:1008C00071E0181664F02FEF3FEF4FE75FE4C701C8
:1008D000B6010E94E1091816B4F466E271E0CE0197
:1008E000DF91CF911F91FF90EF90DF90CF90BF905D
:1008F000AF909F908F907F906F905F904F903F90C0
:100900002F900C94CA032FEF3FEF4FE75FECC70126
:10091000B6010E94820887FDE0CF20E030E0A90107
:10092000C701B6010E948208312C212C87FF0DC01F
:10093000E881F9810190F081E02D6DE2CE01099509
:100940001C01F7FAF094F7F8F09410E060E070E022
:1009500080E09FE3711641F020E030E040E251E496
:100960000E9487081F5FF6CFA70196010E94160814
:100970002B013C010E9400094B015C012AE0BC01F3
:10098000A401CE010E94D9037C01E20CF31C1123C7
:10099000E1F1C501B4010E942F099B01AC01C30123
:1009A000B2010E9415084B015C01E881F9810190B8
:1009B000F081E02D6EE2CE010995E80EF91E11508E
:1009C00020F120E030E040E251E4C501B4010E9492
:1009D000E6092B013C010E9400094B01B12CA12C1E
:1009E0002AE0B501A401CE010E94D903E80EF91E48
:1009F000C501B4010E942F099B01AC01C301B201E2
:100A00000E9415084B015C01DACFC701DF91CF913D
:100A10001F91FF90EF90DF90CF90BF90AF909F908D
:100A20008F907F906F905F904F903F902F900895A0
:100A30001F920F920FB60F9211242F933F934F9353
:100A40005F936F937F938F939F93AF93BF93EF9336
:100A5000FF9383EC91E00E940A01FF91EF91BF9117
:100A6000AF919F918F917F916F915F914F913F9146
:100A70002F910F900FBE0F901F9018951F920F92FD
:100A80000FB60F9211242F938F939F93EF93FF93A1
:100A9000E091D301F091D4018081E091D901F091EE
:100AA000DA0182FD1BC090818091DC018F5F8F7322
:100AB0002091DD01821741F0E091DC01F0E0ED537F
:100AC000FE4F958F8093DC01FF91EF919F918F9165
:100AD0002F910F900FBE0F901F9018958081F4CF2B
:100AE0001F920F920FB60F9211242F933F938F9363
:100AF0009F93AF93BF938091B7019091B801A0915C
:100B0000B901B091BA013091B60123E0230F2D371E
:100B100058F50196A11DB11D2093B6018093B70130
:100B20009093B801A093B901B093BA018091BB0131
:100B30009091BC01A091BD01B091BE010196A11D93
:100B4000B11D8093BB019093BC01A093BD01B093F4
:100B5000BE01BF91AF919F918F913F912F910F90C7
:100B60000FBE0F901F90189526E8230F0296A11D27
:100B7000B11DD2CFCF92DF92EF92FF920F931F93CE
:100B8000E82FF92F05C0015011092109310961F140
:100B9000908196239417B9F305C0015011092109DA
:100BA000310911F1908196239413F7CFC12CD12CE8
:100BB000E12CF12C0AC08FEFC81AD80AE80AF80A0B
:100BC0000C151D052E053F0579F0808186238417BD
:100BD00091F36C2D7D2D8E2D9F2D1F910F91FF90E8
:100BE000EF90DF90CF90089560E070E080E090E0BB
:100BF0001F910F91FF90EF90DF90CF900895E3EC5D
:100C0000F1E01382128288EE93E0A0E0B0E08483EA
:100C10009583A683B78384E091E09183808385ECFC
:100C200090E09587848784EC90E09787868780ECB6
:100C300090E0918B808B81EC90E0938B828B82ECA7
:100C400090E0958B848B86EC90E0978B868B118E51
:100C5000128E138E148EE0E6F2E01382128286E189
:100C600091E09183808387E084838FEF858386E0A2
:100C7000868385E0878384E0808783E0818782E0C4
:100C800082871386148615861686178681E00C9453
:100C90001503789484B5826084BD84B5816084BD79
:100CA00085B5826085BD85B5816085BD80916E000A
:100CB000816080936E00109281008091810082603B
:100CC0008093810080918100816080938100809178
:100CD00080008160809380008091B1008460809367
:100CE000B1008091B00081608093B00080917A0063
:100CF000846080937A0080917A00826080937A0089
:100D000080917A00816080937A0080917A00806877
:100D100080937A001092C100E091D301F091D40148
:100D200082E08083E091CF01F091D0011082E091C8
:100D3000D101F091D2018FEC80831092DB01E09120
:100D4000D701F091D80186E08083E091D501F09140
:100D5000D601808180618083E091D501F091D60138
:100D6000808188608083E091D501F091D6018081F7
:100D700080688083E091D501F091D60180818F7DDC
:100D8000808382E00E94150361E08AE00E94E50111
:100D900060E08BE00E94E50180E00E94B6038AE2F9
:100DA00091E00E94250464E670E080E090E00E94FB
:100DB0003B0281E00E94B6038BE391E00E94250490
:100DC00064E670E080E090E00E943B020E940D0328
:100DD00080E00E94B6038BE491E00E94250464E663
:100DE00070E080E090E00E943B0281E00E94B60348
:100DF0008BE591E00E9425046CE271E080E090E0D8
:100E00000E943B0261E089E00E94E50161E088E028
:100E10000E94E50161E08CE00E94E50160E089E06C
:100E20000E94990160E088E00E94990160E08CE0F6
:100E30000E9499010E940D03C3E0D0E093E2E92EE5
:100E4000F12C29EBC22E20E0D22E35EAA32E30E081
:100E5000B32E40E0842E40E0942E60E08AE00E94B1
:100E60009901CE010197F1F761E08AE00E949901B2
:100E7000C7010197F1F760E08AE00E949901F6014D
:100E80006491F5018491E82FF0E0EE0FFF1FE05729
:100E9000FF4F8591949100E412E42FE030E0462F5B
:100EA0000E94BA05611571058105910529F06F5FF2
:100EB0007F4F8F4F9F4F9F700E94310926E933E487
:100EC0004BE05DE30E94E60920E030E040E05FE3B4
:100ED0000E94E6090E94F908072E000C880B990B66
:100EE0000E9431092DEC3CEC4CEC5DE30E94E609DC
:100EF0006093BF017093C0018093C1019093C201C0
:100F000020E030E048EC52E40E94820887FF5EC097
:100F100080E00E94B6038EE691E00E942504409195
:100F2000BF015091C0016091C1017091C20122E0E6
:100F300080E692E00E942A0486E791E00E94250460
:100F400081E00E94B6038AE791E00E9425046BE8E5
:100F500071E083EC91E00E94CA036EE871E083ECDB
:100F600091E00E94CA034091BF015091C00160917D
:100F7000C1017091C20122E083EC91E00E942A0439
:100F80006EE871E083EC91E00E94CA0361E088E0C2
:100F90000E94990166E989E00E94990166E970E082
:100FA00080E090E00E943B026AE070E080E090E028
:100FB0000E943B028114910409F44FCF0E94F60075
:100FC000882309F44ACF0E94000047CF80E00E94A6
:100FD000B60381E991E00E94250488E991E00E942E
:100FE000250481E00E94B60381EA91E00E94250475
:100FF00062EB71E083EC91E00E94CA036EE871E05D
:1010000083EC91E00E94CA032AE044E650E060E0ED
:1010100070E083EC91E00E94D9036EE871E083EC0C
:1010200091E00E94CA0360E0B2CF5058BB27AA27C4
:101030000E942D080C94A7090E94990938F00E947B
:10104000A00920F039F49F3F19F426F40C94960976
:101050000EF4E095E7FB0C949009E92F0E94B80983
:1010600058F3BA17620773078407950720F079F4DD
:10107000A6F50C94DA090EF4E0950B2EBA2FA02DEC
:101080000B01B90190010C01CA01A0011124FF2735
:10109000591B99F0593F50F4503E68F11A16F04030
:1010A000A22F232F342F4427585FF3CF469537952F
:1010B0002795A795F0405395C9F77EF41F16BA0BF4
:1010C000620B730B840BBAF09150A1F0FF0FBB1FA2
:1010D000661F771F881FC2F70EC0BA0F621F731FEB
:1010E000841F48F4879577956795B795F7959E3F48
:1010F00008F0B0CF9395880F08F09927EE0F9795D9
:10110000879508950E946C0908F481E008950E9473
:101110009B080C94A7090E94A00958F00E94990905
:1011200040F029F45F3F29F00C94900951110C9480
:10113000DB090C9496090E94B80968F39923B1F36E
:10114000552391F3951B550BBB27AA2762177307ED
:10115000840738F09F5F5F4F220F331F441FAA1F81
:10116000A9F335D00E2E3AF0E0E832D0915050403D
:10117000E695001CCAF72BD0FE2F29D0660F771FEB
:10118000881FBB1F261737074807AB07B0E809F0D1
:10119000BB0B802DBF01FF2793585F4F3AF09E3F56
:1011A000510578F00C9490090C94DB095F3FE4F34F
:1011B000983ED4F3869577956795B795F7959F5F99
:1011C000C9F7880F911D9695879597F90895E1E0E5
:1011D000660F771F881FBB1F621773078407BA0744
:1011E00020F0621B730B840BBA0BEE1F88F7E0959F
:1011F00008950E9400096894B1110C94DB090895C8
:101200000E94C00988F09F5798F0B92F9927B751CD
:10121000B0F0E1F0660F771F881F991F1AF0BA959A
:10122000C9F714C0B13091F00E94DA09B1E0089515
:101230000C94DA09672F782F8827B85F39F0B93F07
:10124000CCF3869577956795B395D9F73EF490954D
:101250008095709561957F4F8F4F9F4F0895E894CB
:1012600009C097FB3EF490958095709561957F4FEE
:101270008F4F9F4F9923A9F0F92F96E9BB2793959C
:10128000F695879577956795B795F111F8CFFAF4AC
:10129000BB0F11F460FF1BC06F5F7F4F8F4F9F4FDD
:1012A00016C0882311F096E911C0772321F09EE83B
:1012B000872F762F05C0662371F096E8862F70E0A1
:1012C00060E02AF09A95660F771F881FDAF7880F7B
:1012D0009695879597F90895990F0008550FAA0BD1
:1012E000E0E8FEEF16161706E807F907C0F0121639
:1012F0001306E407F50798F0621B730B840B950B3C
:1013000039F40A2661F0232B242B252B21F4089590
:101310000A2609F4A140A6958FEF811D811D08952D
:1013200097F99F6780E870E060E008959FEF80EC98
:10133000089500240A94161617061806090608953B
:1013400000240A9412161306140605060895092EA1
:101350000394000C11F4882352F0BB0F40F4BF2B10
:1013600011F460FF04C06F5F7F4F8F4F9F4F089550
:1013700057FD9058440F551F59F05F3F71F0479546
:10138000880F97FB991F61F09F3F79F0879508952B
:10139000121613061406551FF2CF4695F1DF08C04A
:1013A000161617061806991FF1CF86957105610567
:1013B00008940895E894BB2766277727CB0197F90F
:1013C00008950E946C0908F48FEF08950E94F909AE
:1013D0000C94A7090E94990938F00E94A00920F0F6
:1013E000952311F00C9490090C94960911240C94F7
:1013F000DB090E94B80970F3959FC1F3950F50E087
:10140000551F629FF001729FBB27F00DB11D639FB6
:10141000AA27F00DB11DAA1F649F6627B00DA11D5C
:10142000661F829F2227B00DA11D621F739FB00D02
:10143000A11D621F839FA00D611D221F749F332772
:10144000A00D611D231F849F600D211D822F762F0B
:101450006A2F11249F5750409AF0F1F088234AF0E8
:10146000EE0FFF1FBB1F661F771F881F9150504054
:10147000A9F79E3F510580F00C9490090C94DB096C
:101480005F3FE4F3983ED4F3869577956795B795DB
:10149000F795E7959F5FC1F7FE2B880F911D9695F5
:1014A000879597F908950E946C09880B990B089508
:1014B000A1E21A2EAA1BBB1BFD010DC0AA1FBB1F58
:1014C000EE1FFF1FA217B307E407F50720F0A21BCA
:1014D000B30BE40BF50B661F771F881F991F1A9437
:1014E00069F760957095809590959B01AC01BD0161
:1014F000CF010895EE0FFF1F0590F491E02D0994A0
:04150000F894FFCF8D
:10150400000000002C018C00B9007901EA00C80039
:10151400DC0000000000C4038C006E026D026E61EA
:101524006E00696E66006F766600202057617465F0
:10153400724C6576656C202020200020204D65616A
:10154400737572656D656E74202000202020204D17
:101554006164652042792020202000204D442E54CF
:10156400616E76697220486173616E2020004C457B
:1015740056454C3A2000202520002D2D2D204D4F7E
:10158400544F525F4F4E202D2D2D004F4E000D0A0B
:10159400004C4556454C3A0031303025204D4158D9
:1015A400002D2D204D4F544F525F4F4646202D2D78
:0615B4002D004F46460029
:00000001FF
